:020000022000DC
:1070000000000420757302005D7302005F730200CC
:1070100061730200637302006573020000000000E8
:107020000000000000000000000000006773020084
:1070300069730200000000006B7302006D730200B0
:10704000E5AD02006F73020085B202006F730200AB
:107050006F7302006F73020005B102006F730200CC
:107060006F7302006F7302006F7302006F73020090
:107070006F7302006F7302006F7302006F73020080
:107080006F730200A58602006F7302006F73020027
:107090006F7302006F730200111C03006F73020014
:1070A0006F7302006F7302006F7302006F73020050
:1070B0006F7302006F730200000000000000000008
:1070C0006F7302006F7302006F7302006F73020030
:1070D0006F7302006F7302006F7302006F73020020
:1070E0006F7302006F7302006F73020000000000F4
:1070F000000000006F730200000000006F730200C8
:10710000000000000000000000000000000000007F
:10711000000000000000000000000000000000006F
:10712000000000000000000000000000000000005F
:10713000000000000000000000000000000000004F
:10714000000000000000000000000000000000003F
:10715000000000000000000000000000000000002F
:10716000000000000000000000000000000000001F
:10717000000000000000000000000000000000000F
:1071800000000000000000000000000000000000FF
:1071900000000000000000000000000000000000EF
:1071A00000000000000000000000000000000000DF
:1071B00000000000000000000000000000000000CF
:1071C00000000000000000000000000000000000BF
:1071D00000000000000000000000000000000000AF
:1071E000000000000000000000000000000000009F
:1071F000000000000000000000000000000000008F
:10720000354936480A1A02D0072291438D4634493F
:1072100034480A1A06D00722914381F309880222D2
:1072200082F3148830483149314A00F044F831483B
:107230003149324A00F03FF831483249324A00F0D1
:107240003AF832483249334A00F035F83248334987
:10725000334A00F030F833483349344A00F02BF811
:1072600033483449344A00F026F83448344900227F
:1072700000F02CF833483449002200F027F8334856
:107280003349091A082902DB002202604160314AB1
:1072900090471F481F49884205D00268043003B454
:1072A000904703BCF7E700208646EC46002000210B
:1072B000294A9047FEE7884207D0521A05D0037842
:1072C00001300B700131013AF9D17047884202D088
:1072D00002700130FAE770470000042000E003204C
:1072E00000000420000004208865030084220020A0
:1072F000F0240020D0730200D0730200BC3C0300D5
:107300008865030084220020842200205C3E030064
:107310005C3E03005C3E03005C3E03005C3E0300F9
:107320005C3E03005C3E03005C3E03008865030096
:10733000F4670300F0240020F0240020F024002053
:10734000383E0020383E0020383E0020383E0020E5
:10735000385E00209D7302006DC90200FEE7FEE763
:10736000FEE7FEE7FEE7FEE7FEE7FEE7FEE7FEE7F5
:1073700000F002B8FFF7FCBF0F484FF00701884349
:1073800085460E4880470E48016841F4700101604F
:10739000BFF34F8FBFF36F8FFFF732BF09480A4922
:1073A0000A4A884207D0521A05D0037801300B7080
:1073B0000131013AF9D170470000042001A8020010
:1073C00088ED00E0483E0300702200208422002067
:1073D0007047000007B5044B0093044A402300F0B7
:1073E00032F803B05DF804FBF1730200F1240020D1
:1073F0002DE9F84389461446B2B10F4B0F4E0325D1
:10740000002743F00108224609EB0701002005F0A0
:107410006FFD0744241A48B933782BB14FF47A40F2
:10742000C047013D02D13570BDE8F88301233370B8
:10743000002CE8D1F8E700BF603E0300F0240020F4
:10744000704705F0A9BDF0B595B01C461646084634
:107450000D4602F063FF1A9B0D93CDE908640024EA
:107460002346082205A928460A948DF82C400C943E
:1074700002F071FF079B0293069B03939DF8143063
:107480008DF8114003F00302012A1DD1BDF814400C
:10749000059EC3F3C203C4F383148DF81030A20019
:1074A00008230EA9284602F056FFC6F3952608AB1E
:1074B0000093224602AB0EA9304600F047FB284657
:1074C00002F030FF15B0F0BD022AF8D1BDF8164029
:1074D000C3F3C203A4098DF810300827082C2646F0
:1074E00028BF08263B4632460EA9284602F033FF45
:1074F000A41B08AB02AA31460EA8374400F08AFB51
:10750000002CEBD1DBE7000008B5FFF79AFF042160
:10751000034800F08BFA034B01225A7108BD00BFEB
:10752000383E030084220020037813F0040216D0B2
:1075300003F00303012B03D0022B09D00120704775
:107540000A6800880232C0F3831002440A60F5E73B
:107550000B684288023303EB92130B60EEE7104690
:10756000704700002DE9F04F87B000230446851CCA
:107570000DF107000E4690468DF8073000F028FF09
:10758000404A50683060936803F580731B1A924636
:1075900002F21C4602F5836902F21447AB4219D38A
:1075A0000023B8F1000F66D0052262F3070364F3ED
:1075B0008913DAF804209DF80700D1B2033115448D
:1075C0004AF82130CAF8045000F026FF012007B025
:1075D000BDE8F08F0121304602F022F9484602F062
:1075E00038F9384602F035F9DAF808000290C0B2EE
:1075F00003300AEB800002A9FFF796FF029B30BB25
:10760000DAB20AEB8202D16803919A1C0133DBB231
:107610000AEB83030292D3F80CB001F00303012BB1
:1076200021D0022B15D08346384602F015F910B14F
:10763000029BCAF808305946304602F0F1F8DAF8F1
:107640000830DAF8042003F580739B1AA6E7D8B255
:10765000CEE7BDF80E309B0903334FEA1B4B02EB1C
:1076600093030293E0E7BDF80C30C3F383134FEAB2
:107670001B4B1344F5E7062262F3070364F39F53A1
:1076800097E700BF04260020064B074810B50022EC
:107690001A7002F0FCFD044610B9044802F0A4FE82
:1076A000204610BD042600204C3D0300843E03000C
:1076B00030B50A4C71B10A4A0A49121BD20800239C
:1076C0009A4201D1002030BD31F82350854202D0CA
:1076D0000133F5E7034654F83300F4E7603D030057
:1076E000383E030084220020094B013903EBC0001F
:1076F000032909D8DFE801F00A02040604207047D4
:107700000079704740797047002070470220704729
:10771000603D0300034BD3E90130C31A584258417E
:10772000704700BF042600202DE9F04186B0FFF726
:10773000F1FF0546002840F0E680744CC4F81804B8
:10774000BFF34F8FA0680290C0B2033004EB8000FB
:1077500002A9FFF7E9FE029B18B1D4F81824002A09
:1077600053D0DAB2991C013304EB8202DBB204EB92
:107770008303D268DB68049302F00303022B0392B5
:1077800002914FD1BDF80E3061484FEA9318474639
:10779000502F28BF502767F38F1307F10801ADF86A
:1077A0000E3002F08CFD0546002800F0978002F0B4
:1077B000B5FD03A900230822284602F0C2FD029964
:1077C000CE43F6B20136B600C9B20331B74204EB7C
:1077D000810124D908233246BF1B284602F0B1FD9F
:1077E000FFB24C4906F108033A46284602F0A9FDCB
:1077F000029B08F1030803EB98030293D4F81834B2
:10780000002B43D1D4F8106453E062689A4204D844
:10781000A260284606B0BDE8F081D8B295E70823FB
:107820003A46E2E7012B59D1BDF80C303848C3F392
:107830008311062928BF062161F3891302318900CB
:10784000ADF80C3002F03BFD0546002846D002F0B2
:1078500065FD0023082203A9284602F072FD0026D8
:10786000BDF80C20C2F38312B300964203F1080363
:10787000C4D202994A1CC9B20331029204EB8101BD
:107880000422284602F05DFD0136E9E7284602F0B1
:1078900049FDFFF73FFF80F00100C5B2B9E7F3688B
:1078A0005B7923B1336829461B6830469847F368F3
:1078B0001E68002EF3D1284602F034FD0DF10700BA
:1078C0008DF8076000F084FDD4F818340BB9029BE2
:1078D000A3609DF8070000F09FFDDAE7D4F810449C
:1078E00054B90D4B0D480E49C01AC008000440F0B1
:1078F000020000F069F8CCE7236820469B689847AF
:10790000E3681C68ECE7002583E700BF042600203D
:107910004C3D030010260020603D0300883D03001D
:10792000903E03002DE9F34780460F46924601A999
:10793000012218469946FFF715FE214D70B3019CB0
:107940000026A11C4E4506EB010230D100211D4846
:1079500001F025FF80F31000631CDBB205EB83030D
:10796000000440EA1840D860E3B2033315F823203E
:1079700068F3C50205F8232035F8232066F3891241
:1079800025F8232055F8232067F39F2245F823206C
:1079900002F0F80242F0010205F823202B781BB117
:1079A000FFF7C2FE0028FBD102B0BDE8F087D2B2DB
:1079B00005EB82025AF82630D3600136C2E700BFD9
:1079C00004260020202A002000231A46FFF7AABF21
:1079D00007B50123019201AAFFF7A4FF03B05DF8E8
:1079E00004FB07B5CDE9002302236A46FFF79AFF9F
:1079F00003B05DF804FB1FB5CDE90123069B03939B
:107A000001AA0323FFF78EFF05B05DF804FB1FB545
:107A1000CDE90023069B0293079B03936A46042348
:107A2000FFF780FF05B05DF804FB000030B50F499B
:107A3000D1F81024002314463CB9C468237152B90C
:107A4000C1F810042260184630BDE46825799D42D3
:107A500006D02468F0E7D268116821601060F2E770
:107A600001330A2BE7D14FF0FF33ECE70426002067
:107A7000084A38B50123D2F8104413701D4604B9E2
:107A800038BDE3685D71236820465B689847E3680A
:107A90001C68F4E704260020037A052B10B50C4679
:107AA0000FD0437A23B1084A0849204601F037FF36
:107AB0000749204601F033FF2046BDE8104001F0A1
:107AC00023BF002AF8D0F3E7DB3E0300BB580300D6
:107AD000FD3E0300C38873B504460D4633B1144A16
:107AE00000921449144A284601F019FF217A052909
:107AF0001CD0637A4BB1A088FFF7F6FD0F4B1049FD
:107B000053F82020284601F00AFF227A0D4BA08866
:107B100053F822600021FFF7CBFD0B4903463246A4
:107B2000284602B0BDE8704001F0F9BE02B070BD59
:107B3000DB3E0300E83E0300E03E0300A83E0300F6
:107B4000BB5803000C3F0300003F03002DE9F04346
:107B500085B01F460C9D002306460C46904695F8BE
:107B60000C902B7329463846FFF7B4FFB8F1060F87
:107B700009D8DFE808F00412181F28334000314606
:107B8000284601F0CCFE002229463846FFF784FF44
:107B900085F80C9005B0BDE8F08322683146284690
:107BA00001F0BDFEEFE7D4E900233146284601F09D
:107BB000B6FEE8E7A36800933146D4E900232846DF
:107BC00001F0ADFEDFE7E3680193A368009331465F
:107BD000D4E90023284601F0A2FED4E723690293EA
:107BE000E3680193A36800933146D4E90023284653
:107BF00001F095FEC7E76369039323690293E36885
:107C00000193A36800933146D4E90023284601F08C
:107C100086FEB8E708292DE9F84F80460E4617463C
:107C20001C463AD8002593F80C901D73194610464F
:107C3000FFF750FFDFF884A0DFF884B0AE422ED902
:107C400018F805205946204601F069FE0135082D37
:107C5000F4D11849DFF86CB0204601F060FE4FF017
:107C6000000A564520D918F80A507E2D03D8284618
:107C70000BF074FB00B92E252A465946204601F028
:107C80004EFE0AF1010ABAF1080FEAD1012221469B
:107C90003846FFF701FF84F80C90BDE8F88F514695
:107CA000204601F03CFED1E70349204601F037FEB3
:107CB000E7E700BFD63E0300D43E0300D23E0300F8
:107CC000CC3E0300D83E0300C30710B507D4F02311
:107CD0004008054A145C23401943115410BD0901A2
:107CE000C9B20F23F4E700BFF02A002030B5094BDA
:107CF0001C78094B196800239C4202DC00221046C4
:107D000030BD11F83350854201EBC302F7D0013387
:107D1000F2E700BFBC2A0020102B002070B50446FB
:107D20000D46FFF7E3FF30B1436823B129462046F3
:107D3000BDE87040184770BD034B04481968002225
:107D4000490800F056BA00BFC02A0020C82A002007
:107D500010B5C0B2FFF7CAFF0446007803F0C4F9BB
:107D600063785A1E53425341834208D1044BD3E9EE
:107D70000023134303D1BDE81040FFF7DDBF10BD62
:107D8000E82A002037B54308364AD35CC2074CBF07
:107D90001B0903F00F0304460D46042B36D8DFE819
:107DA00003F003262D393D0081B30121FFF78CFF3D
:107DB00000230DF107008DF8073000F009FB0122C8
:107DC000A4F12003C4F12000274902FA03F322FAA8
:107DD00000F0034302FA04F4D1E900201443034302
:107DE000C1E900439DF8070000F016FB0EE00029F2
:107DF00018BF02212046FFF767FF07E041B10321CA
:107E0000FFF762FF01212046FFF788FF03B030BD76
:107E10000121EFE70029F9D10421EBE709B10321A2
:107E2000E8E7FFF751FF29462046FFF777FF0DF1FE
:107E300007008DF8075000F0CBFA0122A4F12003CF
:107E4000C4F12000084902FA03F322FA00F00343C8
:107E500002FA04F4D1E9002022EA040420EA030330
:107E6000BEE700BFF02A0020E82A00202DE9F041FB
:107E7000124E134F00243378A34208DC114BD3E990
:107E80000023134318D0BDE8F041FFF755BF3D680C
:107E900005EBC40815F8340003F026F998F8011032
:107EA0004B1E594259410A1A514215F834005141AA
:107EB000FFF768FF0134DEE7BDE8F081BC2A00204F
:107EC000102B0020E82A0020092AF7B505460C46A9
:107ED00016463DD903F038F8D8B11E4B1E481D6038
:107EE0001E4B1F4F1C701F4B002120221E600BF0E9
:107EF000BDFA1D4B00200021C3E90001013CE4B2A2
:107F00000326FF2C0BD1194A1948002100F066F90D
:107F100003E002F0DFFF0028DFD003B0F0BD20B2A5
:107F20009DF806308DF8046005EBC00223F00703CE
:107F30008DF8063001A9937815F830008DF80530DA
:107F40003A4603F00BF8013CE4B20028D9D0E4E74C
:107F50000720E2E7102B0020F02A0020BC2A002096
:107F6000517D0200C02A0020E82A00206D7E020018
:107F70006C3F030070B5084D084E00242B789C42DE
:107F800001D3002070BD3368012113F8340003F0E1
:107F900061F80134F2E700BFBC2A0020102B00205A
:107FA0001FB50021039001AA44F20100CDE901119F
:107FB00000F004F805B05DF804FB000010B572B6DF
:107FC000FFF756FDFFF7B0FB0028FBD1104B114C1B
:107FD0001149E41AE408240444F00100FFF7F4FC1A
:107FE0000E4B1B68DB0700D500BE0D4944F00200B4
:107FF000FFF7EAFCBFF34F8F0A490B4BCA6802F444
:10800000E0621343CB60BFF34F8F00BFFDE700BFBB
:10801000603D0300883D03007B3F0300F0ED00E07E
:10802000873F030000ED00E00400FA054B1C30B56B
:10803000DB00044612F003009BB20DD1074D2A600D
:108040001A44074B1A60074B1870074B1870074B00
:108050001C80074B198030BD0720FCE71C2B00203B
:10806000182B0020142B0020242B0020202B002074
:10807000222B0020D0E90223D1E90201994208BF56
:1080800090422CBF01200020704700002DE90048DD
:108090000C4800F0F0FA0C4BD3E9002312EB000B74
:1080A00043F1000C094BD3E900239C4508BF9345DD
:1080B0005846614603D21BF180704CF10001BDE8C7
:1080C000008800BF8C220020302B0020A82B00202D
:1080D00037B505460C460A4801A901F094FA60B18B
:1080E0000570446001A9064801F0B7FA18B10548C7
:1080F00000F0C6FA002003B030BD0420FBE700BF4B
:10810000942B00208C220020194B1B782DE930483D
:1081100004461BB900252846BDE830880028F9D060
:10812000037F03F0FF05002BF4D0FFF7AFFFD4E986
:108130000223994208BF904215D3236903B92377DC
:10814000D4E90530984721690029E3D0237F03F063
:10815000FF05002BDED0D4E9022312EB010B43F123
:10816000000CC4E902BC2146024802F05CF9D2E7E7
:10817000382B0020983F030013B5114B11491868A4
:10818000019008235822104801F008FA044698B9D3
:108190000E4A0F4801A900F063F9044660B90121B5
:1081A0000B4800F04BFA01230A4A0948194600F02F
:1081B000B1F9094B01221A70204602B010BD00BF70
:1081C000943F03003C2B0020942B00203D820200B2
:1081D0008C220020FFFF7F00382B00203AB103687B
:1081E0005A614A1E514251411961002070470720CF
:1081F000704738B5037F04460D4683B98261FFF7A7
:1082000045FF421941F10003C4E90223236903B188
:10821000256121460020BDE83840FFF759BF002006
:1082200038BD0023014603770120FFF751BF00004E
:10823000014800F020BA00BF8C2200202DE9F04F49
:1082400085B0074600F002FA40B1594AD2E9003140
:1082500013F1807341F10001C2E900310021384679
:1082600000F003FA38B1534C236823B12068FFF7BC
:108270004BFF002323600121384600F0F6F920B1BE
:10828000FFF704FF4C4BC3E9000103A94B48494DDC
:108290004B4C4C4E01F0F1F9002845D1DFF820A1FC
:1082A000444CDFF828B1504602F0D3F82368002888
:1082B00075D07BB12368D0E90201D3E9022399424A
:1082C00008BF90422DD223681B7F1BB12168504606
:1082D00002F0A9F8504602F0B6F8D0E9026305466C
:1082E0000193FFF7D3FE019BB6EB000863EB010996
:1082F000B8F1010F79F1000344DB334EB0453FD9AB
:10830000FFF796FF82194FF496030021584600F0BC
:1083100021F900283ED1236813B9384600F0F2F85D
:10832000256005B0BDE8F08F0378012B1DD05BB14F
:10833000022B11D14FF0000A204602F084F80028E9
:1083400033D080F81CA0F7E741680B7F23B90123E5
:108350000B77204602F067F803A9184801F0B8F936
:1083600003A9164801F089F996E741682B689942FC
:1083700002D100232B60EFE7204602F06DF8EBE717
:10838000AA68C0E70021584600F065F92846FFF7C3
:10839000BBFE01E00D28F9D00023236083E7002B0A
:1083A000BFD1384600F0B2F8BBE701233370D3E702
:1083B000302B0020B02B0020A82B0020942B002075
:1083C000983F0300382B0020FFFFB4008C220020D0
:1083D00070B5EFF3108672B60C4A946801239CB90D
:1083E00093600B4B0B4DD3F8801029401160C3F8FC
:1083F0008050D3F8841051604FF0FF32C3F88420CE
:10840000047006B962B670BD0370FAE7B42B0020A1
:1084100000E100E0FC06FFBD084B9A6810B55AB1B8
:1084200050B9EFF3108172B6054A1C6814605C689D
:108430005460986001B962B610BD00BFB42B002033
:1084400000E100E0435882B03BB100234350435861
:108450000193019B012002B070471846FBE7000022
:10846000F8B5204B4479204E43F824201F4A204B76
:1084700006EBC4049B1A2279DB081B0432B143F0DB
:1084800002001C49FFF7A0FA0820F8BD02680C881A
:10849000C2F8084590F904508A78002D4FEA42123C
:1084A000ECB2D2B219DB14494F1987F8002301222C
:1084B0006D0904F01F0402FA04F441F825404279E2
:1084C00006EBC20101240C7146F832000B4943F05F
:1084D0000300FFF779FA0020D7E704F00F040849FA
:1084E0000A55ECE7C82B0020C02B0020603D03009C
:1084F000983D0300B63F030000E100E0D83F0300D1
:1085000014ED00E0036801221A607047036801223D
:108510005A60704773B501F15005AD000068ADB207
:108520004FF480348C400026C0F80843C0F848431C
:10853000465101F5A8714559019522F07F42019DF0
:1085400040F82120C0F844430BB1C0F8044302B006
:1085500070BD00002DE9F74F884699464FF48036EC
:10856000036808F150058E404FEA880AAD00C3F851
:108570004863ADB2C3F80863074603EB0A00D3F8BB
:1085800004154FF0000B22F07F44D0F84025C0F8CE
:10859000401543F805B05B590093009B531A23F034
:1085A0007F43012B0BD1244B4FF4806043F0010338
:1085B00098473B6843F805B05B590193019B3868C5
:1085C000D0F80455C0F84463631B23F07F43012BAC
:1085D0001AD108F5A878184B013440F8284043F028
:1085E00001034FF4806098473B68D3F804359D42FF
:1085F00008D13B680020C3F84463C3F8046303B0A8
:10860000BDE8F08F0D20FAE78244C9F1FF19CAF8DE
:108610004045D0F80435E21A013A22F07F4209F5CC
:108620007F499145EED3002AE3D10134CAF8404591
:10863000D0F804259342DBE7B03F03000368022231
:10864000C3F8442309B1C3F8042370474FF482717F
:108650000068FFF7F7BE4FF4803303FA01F10368B7
:10866000C3F84813C3F8081370475031890089B222
:108670000068FFF7E7BE0368D3F804057047000001
:1086800090F90430002B09DB5A09012103F01F0384
:1086900001FA03F34032024941F82230704700BF2B
:1086A00000E100E0024B034A1B681068184700BF56
:1086B000C82B0020C02B002070B5064D06460024B4
:1086C00055F8043B0BB1304698470134042CF7D1E0
:1086D00070BD00BFD82B0020033080B240F2FE33C3
:1086E000984230B51FD8134B1A783AB91C895D8966
:1086F0002C440444A4B2B4F5806F0AD91A7DAAB9F7
:108700009A8BDC8B2244024492B2B2F5806F0DD872
:1087100001220A801446142202FB04335A891044B1
:108720005881002030BD48F20860FBE748F206603F
:10873000F8E700BF0C2C00200B4A0C4B518814208A
:1087400000FB0131CB6833B9042049681070012265
:10875000074801F067BB05230649137002238B808D
:10876000012200230968F3E7F02B00200C2C0020E5
:1087700070220020D42C002007B500230549009367
:10878000054A09680548082301F0B6FA03B05DF808
:1087900004FB00BFD42C0020F83F0300702200200F
:1087A00007B50023009301460823034A034801F05C
:1087B000A3FA03B05DF804FBF03F03007022002031
:1087C00013B500230C46009301460423074A0848CA
:1087D00001F092FA38B9074B142202FB043401234A
:1087E000237402B010BD48F20D60FAE7EC3F0300BD
:1087F000702200200C2C002037B50A480A4B426832
:108800009C88196853880325033305709BB20020A8
:1088100000909B0001EB8401044801F06DFA03B065
:1088200030BD00BFF02B0020D42C0020702200208F
:1088300010B50146044800F0E6FE1C220446002163
:108840000AF014FE204610BDC02C002068B102685A
:10885000084B9A4209D14068074B984207D0013330
:1088600098420CBF0120032070470320704700206E
:10887000704700BFDEC0ADDEFE011EF1438803334A
:1088800000EB830399420BD382884FF6FF739A4221
:1088900008D0038833B18068431C58425841704760
:1088A00002207047012070472DE9F8430223DFF8CA
:1088B00060800B800D46174600F5805600F10804D5
:1088C0004FF00109B4420FD2236801330CD0314676
:1088D0002046FFF7D3FF48B10FB187F80090022878
:1088E0000BD14FF480632B80BDE8F883A368D8F8E0
:1088F0000020934201D9C8F800302B8862880333E6
:1089000013442B806388033304EB8304DAE700BF4E
:10891000042C0020154A142303FB002070B50B68BB
:1089200044680D4604F58056ABB15C88033403EB14
:108930008404B4420DD2236801330AD03146204664
:10894000FFF79CFF01280BD010F0FF0F05D0022885
:10895000EFD1002003E00834EBE72C60012070BD6C
:108960006388033304EB8304E3E700BF0C2C00208F
:10897000436873B504460D466BB3244AD1688B42F5
:1089800029D31269934226D813F0030023D1204A39
:108990002189128991421ED121689A6891421AD187
:1089A0001C4A51688B4203D901F580518B420DD38B
:1089B000926993420CD902F58052934208D2012366
:1089C0002B80B0FA80F0400902B070BD0346F7E793
:1089D00048F20960F5E700232B801E46019601A9A5
:1089E0002888FFF797FF30B92B8801339BB2012B02
:1089F0002B80F3D9E8E7019B226899689142EED178
:108A00006360034B1B892381DEE700BF70220020D7
:108A1000F02B00200C2C00202DE9F8431C461D4BA8
:108A20001B7806460F46154673B382B37CB3DFF856
:108A30006C804FF01409A388012B02D948F2096019
:108A400020E009FB03F318F803302BB92146A08876
:108A5000FFF760FF20B92060A3880133A380EAE715
:108A600023681EB1998832889142EFD11FB11988CD
:108A70003A889142EAD19A68C5E90023064B1B89DE
:108A80002B810020BDE8F88348F20160FAE748F244
:108A90000460F7E7E82B0020F02B00200C2C0020CE
:108AA00008B5074B191D5888FFF734FF18B1BDE80A
:108AB0000840FFF7A1BEBDE80840FFF73DBE00BF7C
:108AC000F02B00202DE9F04FA34FDFF8B09289B0D2
:108AD0000646B8463B6823B94946A04800F0CDFD9C
:108AE0003860D8F8005029784B1E052B00F2FE8024
:108AF000DFE813F0060060006000F200F20064019D
:108B00002EB1974B00225A604FF40644F0E02B79C7
:108B1000032B1DD8DFE803F015022B3691490B78A3
:108B2000022B08461AD00B7D022B4FF0010317D100
:108B300014225343C2180020C8545068FFF730FE77
:108B400003E001232B71FFF717FE002800F0BE8021
:108B5000834B00225A6048F20D64C9E00023E7E726
:108B60007F4A13700023536041F61D54C0E07E49D4
:108B70007E48002302222B718A800122096801F0BD
:108B800051F9E2E7784C00262E712068754DFFF709
:108B900007FE774BD4F800C05A8814235343EA18D1
:108BA000EE5451682160A188C2F804C011810222EC
:108BB000A280CAE7B5F814A0AA7DDFF8A8B1AEB1CB
:108BC000022AEB8806D9142101FB0AB1DA1C0889B4
:108BD00002440A81142202FB0ABAC3F57F43BAF8A1
:108BE0000A20FD331344AAF80A308DE7142303FB4F
:108BF0000AB318895C6804EB8004062A69D8DFE8A8
:108C000002F0274E36441D5A040041F61D54AA7D39
:108C1000EB88022A06D9142101FB0AB1DA1C088963
:108C200002440A81142202FB0ABAC3F57F43BAF850
:108C30000A20FD331344AAF80A3059E04D484E4942
:108C400000234360AB690360FFF792FE002874D0F5
:108C50000223AB75002300930423EA1821464348FE
:108C600001F04AF8002831D048F20D64CFE72B69B3
:108C7000002B14BF03230123AB750023009305F1E0
:108C80000C02042304F10801E9E70123AB7500227B
:108C9000EB8800929B002A6904F10C01DFE70329AD
:108CA0000CBF05230623AB7500230093042305F1B5
:108CB0000802E118D3E70623AB752F4B19882D4B1B
:108CC0005868FFF77DFD04460028A0D109B0BDE833
:108CD000F08F48F20E649AE7002E7FF415AF2B79DF
:108CE000012B4DD0EBB1022B3FF43EAF48F20E64A6
:108CF0001422002103A80AF0B9FB41F61D539C423F
:108D000008BF0024D8F8003004941A78023A042AE4
:108D100000F20A81DFE812F0EB00F7001A012201ED
:108D2000290102232B710DF10A01EB68039303A8BB
:108D3000CDE90466FFF71CFE10B948F20964D7E7D5
:108D40000498BDF80A108388EB8003882B81FFF715
:108D500037FD044629E000BF082C0020C02C00206D
:108D6000E82B00200C2C0020D42C002070220020A6
:108D7000F02B0020CC2B0020E02C0020002C002029
:108D8000DFF804A203AA53463146A81DFFF744FEAC
:108D9000044668B9BAF804100498FFF711FD0446B8
:108DA00048F209639C423FF4DFAE002CA0D18DE76E
:108DB0000822314650460AF059FBF1E7002E7FF4B5
:108DC000A3AE6C4B1A7BAAB11E731A78013A062A1D
:108DD0008CD801A151F822F0838E0200A98E0200E6
:108DE000C78E0200CD8E0200ED8C0200D38E0200F1
:108DF000E58E02001A78072AE7D801A151F822F07F
:108E0000218E0200CB8D0200CB8D0200478E020026
:108E10005B8E02007F8E02007F8E0200438E020076
:108E20001A89554901321A8100225A801A730A7828
:108E3000B2FA82F252099A720A7DB2FA82F25209A9
:108E4000DA72012207E04D4958688A884088033267
:108E500002448A8002221A70B7E7474C5A88474971
:108E6000142505FB02420868546850608888108108
:108E700002200C608880002111740622EBE7072293
:108E8000E9E79A7A32B9DA7A8AB900221A705A80F6
:108E90005A6069E6384900229A72CA68002AF2D1FB
:108EA000097C0029EFD05A80FFF7FAFD51E7002234
:108EB000DA72314A116A0029E7D192F82420002A97
:108EC000E3D00122EFE7FFF797FC42E7FFF734FC1E
:108ED0003FE7294A5B88142101FB03235868FFF709
:108EE0005FFC36E700225A60FFF746FC31E70122BB
:108EF0008DF80C201A89ADF818209A88DB68ADF837
:108F00001A20059310E002228DF80C201A89ADF882
:108F100018209A88ADF81A20DA689B7D05929A1F6E
:108F2000534253418DF81C3003A8FFF7C5FB0026C0
:108F300049461348C8F8006000F0CAFB01211148F7
:108F400000F079FC00287FF4C5ADBFE603228DF860
:108F50000C20DA88ADF818201A89CFE70422DB88C4
:108F60008DF80C20ADF81830DEE705238DF80C30B5
:108F7000DAE700BFF02B00200C2C0020D42C0020BE
:108F8000C02C0020D02C0020E42C00204068FFF7EB
:108F900099BD000008B50121044800F036FC18B95D
:108FA000BDE80840FFF78EBD08BD00BFD02C0020F3
:108FB0002DE9F3419846374B1B7806460D46002BAA
:108FC0005CD000295DD009884FF6FF7399425BD0D1
:108FD0006B88002B58D06B689B0758D14AB92F89F2
:108FE0000DF102013846FFF777FB30B102B0BDE862
:108FF000F08113885788ADF8023001A8FFF718FCFC
:10900000044660B9BDF80230234A142101FB032352
:1090100058890338C01B588148F20760E6E70023EF
:109020008375BDF8023083826B68036180F800802D
:1090300001211A4800F0F4FB2B882381B8F1030FBB
:109040006B88A38004BF0423A3754FF0000508BFFD
:109050003368E06008BFA361E780658101A910481B
:1090600000F0FBFA36B1E36833600E4B75601B8984
:10907000B5723381FFF78EFF0020B7E748F2016039
:10908000B4E748F20460B1E748F20360AEE748F2A3
:109090000260ABE7E82B00200C2C0020042C002001
:1090A000C02C0020F02B002008B5084B1A68042AB9
:1090B00009D01968064A42F821000121184600F03B
:1090C000AFFB002008BD48F20B60FBE7DC2C002062
:1090D000D82B00202DE9F04F89B01422002103A8DD
:1090E0000AF0C4F9784A137803F0FF010091904622
:1090F0003BB103A8FFF7E0FA0027384609B0BDE806
:10910000F08F101D00F0A2FB0028F5D140F6F87397
:109110004FF080521B685C1C08BF6C4B6C4C08BF46
:109120001B6811695269581C08BF02FB01F32361D7
:109130000022A3F540536749E360204600F0A8FDF4
:10914000019407460028D8D11C238C226249634829
:10915000DFF89CB100F022FABA463D464FF0030911
:109160003C46019BDE6856443046FFF76FFB012802
:1091700060D042B2002A4AD0032827D13268531C5B
:1091800002D0574B9A4234D1321D06F580511068F7
:1091900001302ED104329142F9D1DBF800203AB9E6
:1091A00002220123CBF80060ABF8042000930BE00F
:1091B000142262434B4B0220991898544A4A4E603D
:1091C000548001340881A4B245F001050AF5805AA3
:1091D000BAF5405FC5D1B9F1010F98BF0025EDB2D6
:1091E000022D03D0062D44D0002D4CD148F20A6741
:1091F00083E73C4914226243881809F1FF3946602D
:10920000032088541FFA89F90134A4B2DEE73549F6
:109210001420604301EB000C0A5400F110020830E6
:109220000A44CCF8046001443046FFF73DFB45F0AA
:109230000205E9E7009B6BB12A4B1422624399189F
:1092400002209854DBF800204A60274A08815480A5
:109250000134A4B200222549CBF800603046FFF764
:1092600023FBBBF80420022A0CBF0422082215436A
:10927000ACE7012388F8003003A80023C8F80430C5
:10928000FFF71AFA39E702A8FFF7D2FAC8B10123AB
:10929000013D03700A2D09D8DFE805F0060806082D
:1092A000070807080F110F000023037102A90B48DC
:1092B00000F0D3F9FFF76EFE1FE70323F5E7022363
:1092C000F3E748F2076718E7E82B002014100010B6
:1092D00070220020EC410300342C0020C02C002020
:1092E000DEC0ADDE0C2C0020F02B0020D82C00209E
:1092F000D42C002073B50D460446C8B1C1B10DF1A0
:109300000601FFF735FBB0B10C4BBDF806006668EF
:10931000142202FB003001210C3000F081FA636856
:109320002E600C336B600123A372002002B070BD6D
:1093300048F20460FAE748F20960F7E70C2C0020D5
:1093400013B50446A8B10DF10601FFF711FB98B162
:109350000C4ABDF80630142101FB0323DA6872B110
:10936000A27A62B1DA680020013ADA60A07202B033
:1093700010BD48F20460FAE748F20960F7E748F2E6
:109380000560F4E70C2C002002230022FFF710BE3A
:1093900018B103230022FFF70BBE48F204607047A8
:1093A000114B1B7813B50446ABB14FF6FF739842CF
:1093B00014D001A8FFF73CFA98B1052303700123EC
:1093C0000371C48001A9094800F047F9FFF7E2FDE5
:1093D000002002B010BD48F20160FAE748F20360D5
:1093E000F7E748F20760F4E7E82B0020C02C0020E4
:1093F0000F4B1B7807B5A3B101A8FFF719FA98B175
:109400000623037001A90B4800F027F90A4B1A78CC
:109410000AB101221A73FFF7BDFD002003B05DF809
:1094200004FB48F20160F9E748F20760F6E700BF85
:10943000E82B0020C02C0020F02B002007B5ADF851
:109440000600ADF804100DF1060001A9FFF7E4FADB
:1094500003B05DF804FB07B51346ADF806000A46F5
:1094600000200DF10601FFF7D7FA03B05DF804FB09
:1094700007B51346ADF806000A460DF106000021B7
:10948000FFF7CAFA03B05DF804FB20B119B1036815
:109490000B600020704748F2046070472DE9F84FD8
:1094A0003C4B1B780446002B6ED000286FD0122254
:1094B0000021DFF8E4A009F0D9FF032323804FF057
:1094C000000BD04614274FF00109DAF80410BAF85F
:1094D0000A50BAF808600846FFF7B8F9032808BF31
:1094E0002388628804BF03F1FF33238007FB0B83CB
:1094F0002E44DB681344638023891D4463892581DE
:10950000B6B233446381C6F58066A389B6B2B3426E
:1095100038BFA68101F1080501F58056AE4217D982
:109520002B68013314D031462846FFF7A7F90128EC
:1095300019D010F0FF0F23D00228EFD1E38884F870
:109540001090761BE589013305EBA605E380E581E4
:109550000AF1140ABBF1000F02D00020BDE8F88F19
:109560004FF0010BB1E7E3880133E380E3896A88B8
:1095700003331344E3816B88033305EB8305CDE7A5
:10958000A3880133A380F6E748F20160E6E748F2DA
:109590000460E3E7E82B00200C2C002010B561B13B
:1095A000B2FBF3F403FB1424A4B244B9C0E90014E1
:1095B00084608281C381204610BD0E20FCE7092013
:1095C000FAE782B050E8022FC188B2EB324F4FF079
:1095D000000317BF92B241EA014142EA014104E0AF
:1095E0004268B2EB324F08BF012340E80212002A62
:1095F000E8D18DF807309DF80730002B0CBF112003
:10960000002002B0704737B550E8013F9DB2C489D1
:1096100025448489A54228BF2D1B0489A54202BF89
:10962000BFF32F8F002207E0C5EA030540E801548D
:10963000002CE9D14FF001028DF803200193019B2A
:109640009DF803200B6002F0FF0322B10B88006835
:10965000184403B030BD1846FBE70A884B889A428D
:1096600009D150E8012FC2EA024240E80123002B51
:10967000F7D1012070470020704737B550E8023F0E
:109680001FFAA3F5C488A54202BFBFF32F8F0022A3
:109690000DE0C48925448489A54228BF2D1BC3EA57
:1096A000054540E80254002CE8D14FF001028DF846
:1096B00003200193019B9DF803200B6002F0FF0340
:1096C00022B14B880068184403B030BD1846FBE750
:1096D0000A884B889A4209D150E8022FC2EA2242F6
:1096E00040E80223002BF7D101207047002070478B
:1096F00001F01F024B090121914000EB830000F0B3
:1097000063B84B0910B501F01F040121A14000EB23
:10971000830000F04EF8E04000F0010010BD01F0C1
:109720001F0301229A404B0900EB8300D14300F054
:1097300061B84B0901F01F0150F82300C84000F048
:10974000010070472DE9F0474E1E760980460F460E
:109750000136002558F8254008EB8509E44394FAC2
:10976000A4F4B4FA84F44FEA451A202C06D101354A
:10977000AE42EFD83C462046BDE8F0875444A742AD
:10978000F5D921464046FFF7BCFF0028F3D0D9F8B1
:109790000040E44394FAA4F4B4FA84F4E5E750E812
:1097A000002F0B4640E8003C9CF0000FF7D110461C
:1097B000704750E8002F42EA010340E8003C9CF06B
:1097C000000FF6D11046704750E8003F43EA01020F
:1097D00040E8002C9CF0000FF6D11046704750E88E
:1097E000002F02EA010340E8003C9CF0000FF6D194
:1097F0001046704750E8003F03EA010240E8002CA1
:109800009CF0000FF6D11046704750E8002F02EB95
:10981000010340E8003C9CF0000FF6D11046704771
:1098200050E8003F03EB010240E8002C9CF0000FE1
:10983000F6D11046704750E8003FA3EB010240E824
:10984000002C9CF0000FF6D1104670470121FFF765
:10985000B0BF0121FFF7B8BF0021FFF7C0BF10B5AF
:1098600090B1D0E9012301689B1ADBB20A60013B89
:10987000DBB2FF2B026802D10020107110BD11680D
:109880004C1C14600B70F2E70E20F7E737B5054665
:1098900000240DF107008DF80740FEF799FD2A68B6
:1098A0006B68116899420ED9481E106011F8014C7E
:1098B000EB68298A01FB0434AB6811791B1ADBB20F
:1098C000994238BF13719DF80700FEF7A5FD2046A9
:1098D00003B030BD37B5054600230DF107000C4637
:1098E0008DF80730FEF774FD2A681368591C116063
:1098F000E968641A298AB4FBF1F41C709DF807002A
:10990000FEF78AFD03B030BD826810B504462AB167
:1099100043690168006998470023A36010BD0EB435
:1099200003B5039921B104AB01AA019300F074F8C7
:1099300002B05DF804EB03B070470A2938B504465D
:109940000D4602D10D21FFF7F8FFA3682268591CCC
:10995000A160D554D4E901329A4204D32046BDE82F
:109960003840FFF7D1BF38BD2DE9F84F9946DDE902
:109970000A431746824688460A460126BA420FD253
:109980004E4538BF4E4613F0010B01D164B9002497
:109990000125B9F1010F1AD909F1FF397D43F8E723
:1099A000B2FBF7F20136E9E79B070ED5B9F1000FDC
:1099B0000CBF30252025A642EAD2013C294650465C
:1099C000FFF7BBFF002CF6D1E1E72025F3E7B8FB5A
:1099D000F5F39F42E2D9DFF83C90B8FBF5F350462F
:1099E00019F8031005FB1388FFF7A7FFB5FBF7F382
:1099F000BD4207D2BBF1000F02D00CB1A64203D387
:109A0000BDE8F88F1D46E8E720215046013CFFF7EE
:109A100094FFF2E7004003002DE9F74F0546174693
:109A20008846002900F0308118F8011B49B92B7BCA
:109A3000002B00F02981284603B0BDE8F04FFFF766
:109A400063BF252940F0C080002698F800302D2BF8
:109A5000424608F1010823D0302B24D02B2B25D0EF
:109A600000242A2B02F1010123D13B681A1D1B6837
:109A70003A601C440A4613782E2B26D101324FF04F
:109A80000009104610F8011BA1F1300CBCF1090FC0
:109A90001DD80A2303FB0913A3F130090246F0E79E
:109AA00046F00106D1E746F00206CEE746F004068E
:109AB000CBE711F8013CA3F130000928DBD80A22DA
:109AC00002FB0434303C0A46CBE74FF0000912F8A1
:109AD000011B01F0FB0068289046F8D069290ED0E0
:109AE0004AD8582964D006D825296DD098F8003076
:109AF000002B99D19BE7632962D06429F6D13A689B
:109B0000D2F800A0111D8AEAEA723960A2EBEA726B
:109B10004FF0010B092A5BDCCB4538BFCB462CB19B
:109B2000BAF1000F01DB720700D5013CB30702D583
:109B3000B9F1000F04D0F00702D4002C4ED100245C
:109B4000BAF1000F52DACAF1000A2D212846FFF7B8
:109B5000F4FE06F00302022A05D1B9F1000F02D18A
:109B6000002C47D10024CDE900464B460A2251463D
:109B70002846FFF7F9FEB9E773294CD014D87029AD
:109B8000B4D13B681A1D3A60302128461C68FFF7A3
:109B9000D4FE78212846FFF7D0FE00220823CDE925
:109BA000003221461022E3E775292BD078299DD178
:109BB00039680A1D3A60CDE900464B46102228E07C
:109BC0003B681A1D19783A602846FFF7B6FE8DE704
:109BD0000A230BF1010BB2FBF3F29BE7A345AFD2D3
:109BE00020212846013CFFF7A8FEA6E77107B0D563
:109BF0002B21ABE7A345B6D230212846013CFFF725
:109C00009CFEADE73968CDE900460A1D3A604B4637
:109C10000A220968ACE73B681A1D3A6016F0010693
:109C2000D3F800A020D1BAF1000F03D0504609F0BC
:109C300072FC0646B44200D9C4B90AF1FF3A1EE0EC
:109C400028460136FFF779FE1AF806100029F7D1E9
:109C5000A642BFF44BAF002C3FF448AF202128466A
:109C6000013CFFF76AFEF3E70026EDE720212846D6
:109C7000013CFFF762FEDDE72846FFF75EFE1AF8BB
:109C8000011F0029F8D131E703B0BDE8F08F0000D3
:109C900007B50B4688B9124B1248134AC01A0E2357
:109CA000C0080093114B0004114940F00100FDF77A
:109CB000A2FE0E2003B05DF804FB4BB9084B094827
:109CC0000C4AC01AC0080E2300930004074BEBE7B0
:109CD00003601B68114603B05DF804EB184700BF32
:109CE000603D0300C03D0300BD4003001040030081
:109CF000C2400300394103002DE9F34188B93D4BCF
:109D00003D483E4AC01AC0080E243D4B0094000452
:109D10003C4940F00100FDF76EFE204602B0BDE870
:109D2000F0814AB9334B3448374AC01AC0080E2470
:109D300000040094324BEBE7D0F800C0BCF1000FF8
:109D400009D12C4B2C48314AC01AC0080824000401
:109D500000942B4BDCE74BB9264B27482C4AC01A02
:109D6000C008092400040094254BD1E74768D7F8C0
:109D70000480B3FBF8F708FB17374FB11D4B1E48A3
:109D8000244AC01AC0080924000400941C4BBFE7F1
:109D90008F0709D0174B18481F4AC01AC008102453
:109DA00000040094164BB3E712F0030F09D0114BD7
:109DB00011481A4AC01AC008102400040094104B1D
:109DC000A6E7C768B9420BD34C1E05691C44AC42D8
:109DD00006D8DCF80C40A44602B0BDE8F04160476C
:109DE000044B05480E4AC01AC00810240004009411
:109DF000034B8DE7603D0300C03D0300BD40030001
:109E000022400300C24003003F41030033410300EE
:109E1000F2400300454103006F4103008741030006
:109E2000AA410300F7B580B92A4B2B482B4AC01A28
:109E3000C0080E242A4B009400042A4940F0010077
:109E4000FDF7D9FD204603B0F0BDD0F800C0BCF14D
:109E5000000F09D11F4B2048234AC01AC00808240C
:109E6000000400941E4BE8E74AB91A4B1A481F4AEF
:109E7000C01AC008092400040094194BDDE74768A4
:109E8000D7F800E00EF1FF370F4209D0114B12480E
:109E9000174AC01AC008102400040094104BCCE7E5
:109EA000C768B9420CD34C1E05690EFB0244AC4294
:109EB00006D8DCF81040A44603B0BDE8F040604787
:109EC000044B05480B4AC01AC00810240004009433
:109ED000034BB2E7603D0300C03D0300BD400300FB
:109EE00035400300C240030033410300F240030049
:109EF000484003006E40030029DF704728DF7047A9
:109F000070B503689D6886B004460E466DB1142294
:109F10000021684609F0AAFAA368059323790196FF
:109F20002BB1012B0DD06846A84706B070BD0123A8
:109F30008DF8003023690293E36803936369049307
:109F4000F1E702238DF80030E3681B030293F5E785
:109F50000846704700207047024B187A003018BF3F
:109F600001207047882D0020034B187A0122B0FA97
:109F700080F05A7440097047882D002008B51046BB
:109F80001A4609F04AFA002008BD000008B514225C
:109F90000021044809F06AFA0348FFF712FB002089
:109FA00008BD00BF882D0020782D002010B5094C79
:109FB000094B43602046FFF749FC40B907F00EFE0D
:109FC0001C2320748C2205490548FFF7E7FA00207E
:109FD00010BD00BF882D0020E0410300EC2C0020C4
:109FE000782D002070B5244C244E237A25463BB9A9
:109FF00023492448FFF741FB306008B9606070BD19
:10A00000346802232B72237973B1012B24D02046AC
:10A010000321FFF775FF00232B726B601849194865
:10A02000BDE87040FFF754BBD4E90523D21AB2F55E
:10A03000805F28BF4FF48052D4E903109208012AB0
:10A0400038BF012219441844FFF756FF50B11128B8
:10A05000DDD101232B72D2E7D4E903031844FFF7C3
:10A060004DFFF3E72B7C002BC9D10146BDE87040C2
:10A07000022000F009B800BF882D0020A02D00208C
:10A080009C2D0020782D002038B5831E012B45D84B
:10A09000234C237A002B41D0022B09D1032830D046
:10A0A000204B1B680022E2601A793AB1012A22D0C3
:10A0B000637C7BBBBDE83840FFF794BFD3E9051252
:10A0C0008D1AB5F5805F94BF521902F580529A61DE
:10A0D0009142EDD102284FF0000308BF19462372C8
:10A0E000104B18BF0D211868FFF70AFF0E490F48E3
:10A0F000FFF7EEFADCE71A6901321A615B699A42EE
:10A10000E7E7E3680133082B01D8E360D0E70023D9
:10A11000E360DFE7BDE8384007F050BD38BD00BF61
:10A12000882D0020A02D00209C2D0020782D0020BF
:10A1300000F0FD03012B08D1044B00225A74421E8B
:10A14000504250411874FFF74DBF7047882D0020D2
:10A1500010B5064C201DFFF779FB28B9637C1BB9AD
:10A16000BDE81040FFF73EBF10BD00BF882D0020A6
:10A170002DE9F34180460D460F4801A916461F46BA
:10A18000FFF741FA0446A8B11C22002109F06EF93C
:10A190002D0B0123237101A9C4F80080A760E5609D
:10A1A00066610548FFF759FAFFF7D2FF002002B0B9
:10A1B000BDE8F0810420FAE7782D00202DE9F7436F
:10A1C00081468846104801A917461E46FFF71BFA2C
:10A1D0000446B0B11C22002109F048F900250A9B71
:10A1E000A36001A92571C4F80090C4E903786661F1
:10A1F0000548FFF732FAFFF7ABFF284603B0BDE88A
:10A20000F0830420FAE700BF782D00202DE9F04705
:10A21000B0F806904479D2F800A09DF8208009FBA0
:10A2200004F4043C06460AEB0300A0420F4688BF34
:10A23000A4EB030A191DC2F800A0B1FBF9F509FB54
:10A2400015114DB9A9EB0104544528BF5446BAF184
:10A25000000F04D1BDE8F0873668013DF1E7043115
:10A260007B1970182246B8F1000F0ED0014618462F
:10A27000AAEB040A09F0D1F8D145254436684C46CA
:10A280004FF0000128BF5446E1E71946F0E7FFF719
:10A29000E6BAF8B546790146721E05460023934298
:10A2A0002D6803D30024A64202D8F8BD0133F6E797
:10A2B0000F682846FFF70EFB01343946F3E72DE916
:10A2C000F843068ACD1C0746FFF7E0FA043E354402
:10A2D0000446B5FBF6F5F0B14FF48073EDB2838020
:10A2E000C680013D076081464FF00008A84512D2A4
:10A2F0003846FFF7CBFA064648B1637901336371FC
:10A3000008F10108C9F8000007608146EEE7204621
:10A31000FFF7BFFF34462046BDE8F8830121043033
:10A32000FFF77EBA10B5012104460430FFF783FA27
:10A3300010F0FF0F04D12046BDE81040FFF7A9BF81
:10A3400010BD1FB503920022009203AAFFF75EFF23
:10A3500005B05DF804FB1FB503920122009203AA29
:10A36000FFF754FF05B05DF804FB41DF70470000C4
:10A37000064B10B500241C70054B1C60BFF35F8FAB
:10A380000449054800F039F8204610BDAC2D0020E6
:10A39000B02D00200C420300A42D002007B500239F
:10A3A0000DF107008DF80730FEF712F8F1EE103AC4
:10A3B00023F09F03E1EE103ABFF35F8F094B402279
:10A3C000C3F884219DF80700FEF726F807F006FC85
:10A3D00020B1FFF7CAFF03B05DF804FB20BF40BF08
:10A3E00020BFF8E700E100E0836800225A609A602D
:10A3F000C3E90422DA601A6070470B684A68436058
:10A40000934208BF0023016008BF43607047436860
:10A4100043B10268916852680B449342436004BFA1
:10A4200000234360704770B5446806460D462068B7
:10A4300018B1B3682946984718B923682B6025607E
:10A4400070BD2468F3E74368186808B102681A60B1
:10A4500070474368186870474368186800B97047C8
:10A46000884203D102681A600120704703460068E1
:10A47000F4E7000010B50D49A1F59472914201D89E
:10A4800000200FE08B1ADB1003EBD3735B1002EBA1
:10A49000C30452F83330834205D802D204F10802D3
:10A4A000ECE7606810BD2146E8E700BF68430300A1
:10A4B00008B5FFF7DFFF024B002808BF184608BDAC
:10A4C0002A4203000B7B23B14B6803600023037116
:10A4D00070470B6803600123F9E703684A688968DD
:10A4E00010B5D41A8C428BBF5B1800230360026046
:10A4F00098BF037110BD03680A68896810B59C1A7B
:10A500008C428BBF5B1A01230360026098BF03710A
:10A5100010BD037910B504461BB1FFF7DEFF2068BC
:10A5200010BDFFF7E8FFFAE70648074A0378074936
:10A53000D35C012213B1043001F030BB0C3001F0C8
:10A54000DDB800BF94220020042E0020DC2D002066
:10A550000648074A03780749D35C012213B1043047
:10A5600001F0C8BA0C3001F073B800BF942200208B
:10A57000042E0020DD2D002037B50578012D05D0F3
:10A58000002D32D0022D25D003B030BD037A13B98F
:10A59000FFF7CAFFF8E743681A4C1978204600F025
:10A5A000E0F880B18DF800500190174B68461B68A9
:10A5B0009847A168E368A2885B1A9A42E8D2134BD5
:10A5C00001221A70E0E7A268E3689A42F1D08DF8A0
:10A5D0000000EAE7C3688DF800500193FFF7A4FF7D
:10A5E000094B68461B689847CEE70949094800F0BF
:10A5F000CAF810B9FFF7ACFFC6E703238DF80030A7
:10A60000EEE700BFB82D0020B42D0020C82D00209B
:10A61000DD2D0020CC2D0020F0B51F46234B89B046
:10A6200006461A600C4600293DD08A8820480968F1
:10A6300000F088F8002834D1A289A1681D4800F0F4
:10A6400081F800282DD11C4D0FCD6C460FC495E824
:10A650000F0084E80F0073690693337C174A18488B
:10A660008DF81C70003318BF01238DF81430737CF3
:10A67000002B14BF0E2300238DF81530F3680293CE
:10A68000B36803933368019369467368009300F0DD
:10A6900031FB30B90B4B18703368013301D0FFF731
:10A6A00043FF09B0F0BD0720FBE700BFB42D002039
:10A6B000B82D0020CC2D00202447030079A50200EE
:10A6C00094220020C82D002070B5084C014608488F
:10A6D000267800F058F8054636B100232370FFF7BE
:10A6E00023FF08B1FDF75CFC284670BDC82D002093
:10A6F000B82D002010B501460E4800F032F804468F
:10A70000A8B90D480D4A0378D35C63B1043001F059
:10A7100039FA60B90A49074800F035F838B9BDE898
:10A720001040FFF715BF0C3000F0DCFFF1E72046CA
:10A7300010BD00BFCC2D002094220020042E00204C
:10A74000DD2D002049B152B1531E1A4007D182605D
:10A7500001608380C260104670470E207047092058
:10A76000704710B58468C2688388121B934208D36F
:10A77000C26813400268D154C3680133C36000202B
:10A7800010BD0420FCE78268C3689A420AD0826840
:10A79000838813400268D35C0B7083680133836045
:10A7A00000207047052070470A4B1B685A1C05BFE4
:10A7B000094B0A4A0A4A10680ABF1B781068C0F39E
:10A7C0000310082B04D103288CBF00200120704700
:10A7D0000020704730010010E00F00F0E80F00F09B
:10A7E00034010010054B1868043B1B68082B06BF9A
:10A7F000B0FA80F040090020704700BF340100101B
:10A8000008B5FFF7D1FF40B14FF080430022C3F8F5
:10A810000C21C3F81021C3F83825FFF7C5FF002825
:10A8200046D04FF080525E4BD2F80414C3F8201586
:10A83000D2F80814C3F82415D2F80C14C3F828155C
:10A84000D2F81014C3F82C15D2F81414C3F830152C
:10A85000D2F81814C3F83415D2F81C14C3F84015F4
:10A86000D2F82014C3F84415D2F82414C3F84815BC
:10A87000D2F82814C3F84C15D2F82C14C3F850158C
:10A88000D2F83014C3F85415D2F83414C3F8601554
:10A89000D2F83814C3F86415D2F83C14C3F868151C
:10A8A000D2F84014C3F86C15D2F84424C3F87025CC
:10A8B000FFF798FF10B13B4B3B4A1A60FFF792FF3E
:10A8C00018B13A4BFB22C3F81825FFF78BFF48B1AC
:10A8D0003749384B0A681B6822F00F0203F00F0358
:10A8E00013430B60FFF77EFF18B1334B4FF4007238
:10A8F0001A60FFF759FF48B14FF08043D3F80024A6
:10A90000D20744BF6FF00102C3F800242B4AD2F8EB
:10A91000883043F47003C2F88830BFF34F8FBFF321
:10A920006F8F4FF01023D3F80022002A03DBD3F8F7
:10A930000432002B2FDA224B0122C3F80425D3F86E
:10A940000024002AFBD04FF010221221C2F800127E
:10A95000D3F80024002AFBD04FF010231222C3F8B2
:10A960000422174B1A46D3F800140029FBD000210B
:10A97000C3F80415D2F80034002BFBD0BFF34F8F7F
:10A980000E49104BCA6802F4E0621343CB60BFF378
:10A990004F8F00BFFDE70C4B0C4A1A6008BD00BF8B
:10A9A00000C000408C5600404881030000F0004089
:10A9B000E40E0040580200104096024000ED00E016
:10A9C00000E001400400FA05A82200200090D00316
:10A9D000074B1B5C1F2B8ABF064A4FF0A04203F0B7
:10A9E0001F03D2F80405D840C04300F001007047AF
:10A9F0004847030000030050074B1B5C1F2B86BF1A
:10AA000003F01F0305494FF0A041012202FA03F3AE
:10AA1000C1F80C35704700BF4847030000030050E1
:10AA2000074B1B5C1F2B86BF03F01F0305494FF02C
:10AA3000A041012202FA03F3C1F80835704700BFB4
:10AA4000484703000003005008B50020FFF7E8FF67
:10AA50000120FFF7E5FF0220FFF7E2FF0320BDE83A
:10AA60000840FFF7DDBF08B50020FFF7C5FF012054
:10AA7000FFF7C2FF0220FFF7BFFF0320BDE8084039
:10AA8000FFF7BABF0A4B185C1F288ABF094B4FF06B
:10AA9000A04300F01F00D3F804250121814021EAE2
:10AAA00002000A40C3F80805C3F80C25704700BF30
:10AAB0004847030000030050074B1B5C1F2B8ABF55
:10AAC000064A4FF0A04203F01F03D2F81005D84009
:10AAD000C04300F0010070474447030000030050EA
:10AAE0000B2809D00C2809D0182809D019280CBF28
:10AAF00003204FF0FF30704700207047012070475F
:10AB000002207047014B185C704700BF44470300A8
:10AB1000C20710B504460CD54FF0A0430322C3F87A
:10AB20003427C3F83827C3F83C27C3F84027FFF77A
:10AB30008BFFA3070AD54FF0A0430C22C3F82C27A4
:10AB4000C3F83027C3F86027C3F8642710BD00009E
:10AB500038B5074C051E04F1080318BF1C462368CE
:10AB60002BB11A6822605B6828469847F7E738BD22
:10AB7000E82D002020B9054B01225A70FFF7E8BFED
:10AB8000012802D1014A9070F8E77047E02D0020BB
:10AB900020B9034B01225A70FFF7DABF704700BF9C
:10ABA000E02D002038B50E4C2378B3B90D48636012
:10ABB000A3602361E36000F0E3F8054607F00EF8B8
:10ABC00008B900F0E9F801232370074BD3F80034EB
:10ABD0000BB10123A370284638BD8525F5E700BFDA
:10ABE000E02D002075AB02000000014037B50D4C90
:10ABF00000230DF107008DF80730FDF7E9FBE3684E
:10AC0000013BE360E36833B9074BD3F8005415B94F
:10AC100000F0D4F8A5709DF80700FDF7FDFB03B028
:10AC200030BD00BFE02D002000000140012813B519
:10AC30000DD018B1032820D002B010BD114B012255
:10AC4000C3F88020BFF34F8FBFF36F8FF4E70E4C34
:10AC500000230DF107008DF80730FDF7B9FB2378CD
:10AC60000BB9FFF79FFFE3689DF807000133E3602E
:10AC70000123A370FDF7D0FBDEE700F08DF8FFF7AE
:10AC8000B5FFD9E700E100E0E02D00201FB5037813
:10AC90008DF800304368019383688DF80830C368ED
:10ACA0000393054A054B684653F8213052F82110AA
:10ACB000984705B05DF804FBF42D0020FC2D002022
:10ACC0001FB503788DF800304368019383688DF8D1
:10ACD0000830C3680393054A054B684653F8213092
:10ACE00052F82110984705B05DF804FBF42D0020C0
:10ACF000FC2D0020F0B5184B0778DFF86CE043F826
:10AD00002720164B16460A6943F827204B7F0EF87A
:10AD100007300C4684460FCC89B06D460FC594E8C9
:10AD20000F0085E80F001EF80730049753B1002E7E
:10AD30000B4A694608BF32460CF1040000F0FEFDE4
:10AD400009B0F0BD002E074A694608BF32460CF133
:10AD50000C0000F0ADFBF3E7FC2D0020F42D0020EB
:10AD60008DAC0200C1AC0200042E002000F1804036
:10AD7000002382B0036003680193019B02B0704717
:10AD8000044A137923B90121106091801846704755
:10AD900085207047082E0020074B1A68D20704D47C
:10ADA000C02283F8002301221A604FF08043012261
:10ADB000C3F81825704700BF00E100E04FF0804263
:10ADC00008B50223C2F808334FF48270FFF7CEFFB4
:10ADD000034B01211960D2F81834DB03FBD408BD02
:10ADE0000C000040124B1B6810B573B14FF480701B
:10ADF000FFF7BCFF4FF080430122C3F808230D4B3F
:10AE0000587910B95A711B6898470B4B1B6873B17E
:10AE10004FF48270FFF7AAFF4FF080430222C3F87D
:10AE20000823044B01201B68BDE81040184710BDE3
:10AE300000010040082E00200401004000F1804085
:10AE400000F5C040002382B0036003680193019BBA
:10AE500002B0704703681F2B83BF03F01F0303601A
:10AE600001484FF0A04070470003005007B5019023
:10AE700001A8FFF7EFFF019B00EB8300D0F800274C
:10AE800022F44032C0F80027D0F8003743EA0143EB
:10AE9000C0F8003703B05DF804FB4309012B00F054
:10AEA0001F004FF6FF7318BF4FF0FF3323FA00F077
:10AEB00000F0010070470000054B4FF0FF320728FB
:10AEC00043F8202084BF1B1883F85820704700BF28
:10AED000102E002010B5184C94F86A2052BBFF21A8
:10AEE0001046FFF7DAFF10B1A31883F830100132D3
:10AEF000302AF5D10021C8B2FFF7DEFF01310C295D
:10AF0000F9D1062200210D4808F0B0FA0C4BC022FE
:10AF100083F8062340221A604FF4BE70FFF78EFFBD
:10AF2000084B4FF00042C3F80423012384F86A3031
:10AF3000002010BD0820FCE7102E0020742E0020F9
:10AF400000E100E000600040034B93F86A0000302D
:10AF500018BF0120704700BF102E0020F7B53B4EF0
:10AF60003318054693F93030002B6CDA8B78C3F335
:10AF70004003002B0BBF082400240C20082084422F
:10AF800002D1042003B0F0BD56F82470013743D13C
:10AF9000701946F8242080F8304013B9331983F82B
:10AFA00058508B785A0717D4D80737D501A8019580
:10AFB000FFF750FF019B00EB8300D0F8003723F030
:10AFC0000203C0F800372248EA0805F0070701230A
:10AFD000BB40875C3B43835488780A7810F00200BA
:10AFE00028D0A40004F1804404F5C0442D02D4F814
:10AFF000103523F44F3323F44073C4F81035120492
:10B00000D4F8103505F47C5502F4403215431D4345
:10B01000C4F810550020B5E70134B0E701A84A781C
:10B020000195FFF717FF019B03F5E073920040F8CD
:10B030002320C8E7083C344494F8605045EA821263
:10B0400084F860209EE708209CE700BF102E0020B7
:10B05000742E002073B5224C2518064695F9302031
:10B06000072A19DD224492F858309B09032B0FD18F
:10B07000019001A8FFF7EEFE019AD0F81035D340F9
:10B08000DB0707D402213046FFF7F0FE02B070BDA7
:10B09000012BF7D00321F6E7D3B2072BF6D89300A4
:10B0A00003F1804303F5C043D3F8100540F00100DD
:10B0B000C3F8100502F14000800080B2FFF7BEFE29
:10B0C0000029E3D095F9303054F82330002BDDD03F
:10B0D000012303FA02F2034BC3F80423D6E700BFAF
:10B0E000102E00200060004007B5019001A8FFF776
:10B0F000B1FE019BD0F81005D84000F0010003B06C
:10B100005DF804FB2DE9F04F002485B0CDE9024441
:10B11000574D4FF48072012102F1804303F5C04383
:10B1200090B21B68012B06D1D5F804330B4202D034
:10B13000FFF784FE0C430432B2F5907F4FEA4101E1
:10B14000EAD14C4B1B68012B11D14FF4BE70FFF7B5
:10B1500075FE4FF0A04344F00044D3F8202502923E
:10B16000C3F82025D3F820280392C3F8202814F030
:10B17000FF0F1AD0404F00250126344210D0AB00FB
:10B1800003F1804303F5C043D3F81005D3F810153D
:10B1900057F8253023B1C1F30141C0F3052098478A
:10B1A0000135082D4FEA4606E7D1002C58DADFF8C2
:10B1B000C880324FDFF8C8904FF0000B4FF0010A03
:10B1C00019F9011B4B1C38D0CCB224F0C00504ABDC
:10B1D00003EBD50313F8082C04F007030AFA03F372
:10B1E0001A422AD001A80195FFF734FE019B03F50E
:10B1F000E07350F82360C6F30146022E0CBF032112
:10B2000002212846FFF732FE01A80195FFF722FE32
:10B21000019B0AFA03F3C0F8203508EB050393F904
:10B22000303058F8233043B1A109032903D0022E4E
:10B2300019D1012901D1284698470BF1010BBBF127
:10B24000040FBDD14FF0A043D3F820250292C3F8DC
:10B250002025D7F820350393C7F820351343A9D10B
:10B2600005B0BDE8F08F032EE7D10229E2E700BF69
:10B27000006000407C610040102E00200003005060
:10B28000702E0020014B1B68184700BF7C2E002049
:10B290000E4B984237B50D4602D0002003B030BDAA
:10B2A00000230DF107008DF80730FDF791F8084BEA
:10B2B0001C7914B901221D601A719DF80700FDF771
:10B2C000ABF8002CE9D01120E8E700BF00200040D7
:10B2D0007C2E00200023435082B043580193019BF1
:10B2E00002B070470A4610B54FF48E71FFF7F2FFB7
:10B2F000136A9168C95C136A01331362C0F81C15A4
:10B3000010BD024608B54FF492710068FFF7E2FFE6
:10B310004FF484711068FFF7DDFF136801221A6093
:10B3200008BD8B690A4610B54FF4847123B9FFF745
:10B33000D1FFD0F8183510BDFFF7CCFF536AD168A4
:10B34000D0F81805C854536A01335362F3E700007C
:10B350001FB501238DF80030044BCDE90110D3E96E
:10B3600000126846904705B05DF804FB842E00206B
:10B3700030B54D4AD2F8043313F4007F85B015463A
:10B380004FD0D2F82431002B4BD04FF4927110469D
:10B39000FFF7A0FF4FF40173C2F80833434B93F853
:10B3A000291009B9012151603F4902228DF800207E
:10B3B000D1F88024C1F8802403929A690292DA6855
:10B3C00001920022C3E906226846D3E900129047A1
:10B3D0003548D0F81C315BB134494A690B6A9A424E
:10B3E0000A464BD991F82830002B47D1FFF77AFF56
:10B3F0002D4AD2F8443193B14FF4A2711046FFF7B1
:10B4000069FF2A4B93F8291009B1012111609A694B
:10B410002AB100229A61586AD968FFF799FF05B0EE
:10B4200030BDD5F804335B07D2D5D5F80831002BF1
:10B43000CED01E4C1C482146FFF773FF636AA269F9
:10B440009A422346C4D1E269E1684AB12369E360C4
:10B450000023606AA261E3616362FFF779FFB7E7E7
:10B4600094F829200AB901226A600F4A4FF401704A
:10B47000C2F8080300229A61586AEEE74FF48E7111
:10B480000948FFF727FF5369002BB1D0516902919A
:10B49000002391688DF80030019153616846D2E92C
:10B4A00000139847A4E700BF00200040842E00202E
:10B4B0002DE9F843604F047991462C2202FB047277
:10B4C000064692F82A200D46002A40F0AE805B49DD
:10B4D0000068FFF7DDFE8046002840F0A98029685B
:10B4E0004A1C10D01F2987BF01F01F03544A0B4686
:10B4F0004FF0A0420120984003F5E073C2F8080520
:10B50000032042F823006868431C0DD01F288BBF1E
:10B5100000F01F0303464A4A4FF0A04203F5E073D0
:10B520004FF0000C42F823C03368AA6995F814C0A4
:10B53000C3F824256A7DBCF1010F4CEA0202C3F86E
:10B540006C25C3F81405C3F80C152BD1A968481C49
:10B550000DD01F298BBF01F01F020A4638484FF05B
:10B56000A04002F5E0724FF0000C40F822C0E868FD
:10B57000421C13D01F2887BF00F01F0C304A84469E
:10B580004FF0A0424FF0010E0EFA0CFE0CF5E07CDD
:10B59000C2F808E54FF0030E42F82CE0C3F80805A6
:10B5A000C3F810152C236343FA18C2F804902A69D3
:10B5B000FA50B9F1000F20D04FF48E7130682A7F15
:10B5C000FFF788FE4FF4A2713068FFF783FE3368FF
:10B5D0001C49C3F804131B0B59B252010029D2B203
:10B5E0001EDB1948451885F800230122490903F09C
:10B5F0001F0302FA03F340F8213033680422C3F832
:10B6000000252C2303FB04730022C3E9062283F8E0
:10B6100029205A61012283F82A204046BDE8F88398
:10B6200003F00F030949CA54E7E74FF00808F4E7AD
:10B630004FF01108F1E700BF842E002071B3020023
:10B64000000300508000020000E100E014ED00E083
:10B650002DE9F84F224F06794FF02C0909FB0674AB
:10B6600080466569002D38D16261A16025624FF482
:10B670008E71006884F82850FFF72CFED8F800007F
:10B68000012383602146FFF72DFE6368A1469BB925
:10B69000D8F800A0D4F814B0236A9B4512D8D8F883
:10B6A0000020D2F81C31002BFBD00123D3602C23C7
:10B6B00003FB067300225A612846BDE8F88F94F810
:10B6C000283043B9DAF81C31002BF8D049465046EF
:10B6D000FFF708FEE0E70F25E9E71125ECE700BFDB
:10B6E000842E00200379044A2C2101FB032358698E
:10B6F000003018BF01207047842E00202DE9F84348
:10B70000394E05792C2303FB056307465C6824B199
:10B7100003684FF40170C3F808032C2303FB05638F
:10B72000986950B1D86900283ED024B13B684FF4E5
:10B730000172C3F80423112433E09A61D96058627E
:10B74000D8612C2303FB056393F829301BB910B98A
:10B750003846FFF7D6FD4FF02C0909FB056838681D
:10B76000D8F80430002B34D14FF4A271FFF7B2FDAA
:10B77000C1463868D0F82431D0F80821D0F84441C7
:10B78000B2B90CB9002BF4D02C2202FB05650022C3
:10B79000AA6123BB2CBB95F829103B680122B1B1EB
:10B7A0001A602046BDE8F8831961DA610120C8E714
:10B7B000002BE9D1002CE7D14946FFF7B2FDD8F8BC
:10B7C0002430D8F818209A42D3D82346DCE75A60B0
:10B7D000E7E74FF40173C0F804330024E1E70324E2
:10B7E000DFE70F24DDE700BF842E00200023435055
:10B7F00082B043580193019B02B070471FB50123EB
:10B800008DF80030044BCDE90110D3E900126846F1
:10B81000904705B05DF804FBB02E00207FB5454A87
:10B82000D2F82461002E63D010464FF49271FFF7D6
:10B83000DDFF02238DF80030D2F88034C2F8803466
:10B840000393D2F83C3502933B4BDA680192002215
:10B85000C3E906226846D3E900129047354AD2F878
:10B8600044317BB14FF4A2711046FFF7BFFF324B5A
:10B87000996939B10021C3E90611D968D2F83C05AC
:10B88000FFF7BCFF2B4AD2F82031B3B14FF49071CF
:10B890001046FFF7ABFF0123D360274B596961B115
:10B8A000D2F84C150291002299688DF80020019180
:10B8B0005A616846D3E9001290471E4AD2F85831BF
:10B8C000A3B14FF4AC711046FFF790FF1A4B5969C2
:10B8D00061B1D2F84C150291002299688DF80020D0
:10B8E00001915A616846D3E90012904704B070BDD7
:10B8F000D2F81031002BB1D04FF488711046FFF709
:10B9000075FF0D4BD2F83C0599698842A6D1DC69D8
:10B91000D96864B1D2F8005225F02005C2F800526F
:10B920001A699C61DA60DE61FFF768FF96E79C6147
:10B93000FAE700BF00200040B02E00202DE9F843B8
:10B94000664F06799146242202FB0672044692F85D
:10B9500020200D46002A40F0BB8061490068FFF7B7
:10B9600097FC8046002840F0B6802868421C10D022
:10B970001F2887BF00F01F035A4A03464FF0A0421A
:10B980000121994003F5E073C2F80815032142F83C
:10B99000231069684B1C0DD01F298BBF01F01F03BA
:10B9A0000B46504A4FF0A04203F5E0734FF0000CF5
:10B9B00042F823C02368AA6995F814C0C3F8242567
:10B9C0006A7DBCF1010F4CEA0202C3F86C25C3F892
:10B9D0000C05C3F814152BD1A968481C0DD01F29DC
:10B9E0008BBF01F01F020A463E484FF0A04002F50F
:10B9F000E0724FF0000C40F822C0E868421C13D0FF
:10BA00001F2887BF00F01F0C364A84464FF0A04223
:10BA10004FF0010E0EFA0CFE0CF5E07CC2F808E5C2
:10BA20004FF0030E42F82CE0C3F80805C3F81015D8
:10BA300024237343FA18C2F804902A69FA50B9F122
:10BA4000000F2FD04FF4887120682A7FFFF7CEFEB9
:10BA50004FF490712068FFF7C9FE4FF4927120688F
:10BA6000FFF7C4FE4FF4A2712068FFF7BFFE4FF44A
:10BA7000AC712068FFF7BAFE23681B49C3F80413B2
:10BA80001B0B59B252010029D2B21CDB17484518D2
:10BA900085F800230122490903F01F0302FA03F38A
:10BAA00040F8213023680822C3F80025242303FB33
:10BAB00006730022C3E906225A61012283F820207E
:10BAC0004046BDE8F88303F00F030949CA54E9E78B
:10BAD0004FF00808F4E74FF01108F1E7B02E00200E
:10BAE0001DB80200000300501003420000E100E016
:10BAF00014ED00E001F06043B3F1005F2DE9F04187
:10BB0000074638D11E4B0679242505FB0635984695
:10BB10006C69002C31D16A61A96000684FF49071A2
:10BB2000FFF764FE4FF4AC713868FFF75FFE3B68C7
:10BB30006A69A968C3F84415C3F8482501229A60C8
:10BB40006A68AAB9D3F82021D3F858411AB9002C51
:10BB5000F8D00F2407E0002CFBD10122DA60D3F8E3
:10BB60005821002AFBD0242303FB0686002373619F
:10BB70002046BDE8F0811024FAE71124F8E700BF61
:10BB8000B02E00200379044A242101FB03235869C5
:10BB9000003018BF01207047B02E0020F8B501F02A
:10BBA0006043B3F1005F04460F465ED10379304D28
:10BBB000242101FB0351486820B121684FF4047629
:10BBC000C1F80863242101FB03539E6956B1D9696A
:10BBD000002939D020B123684FF40472C3F804233C
:10BBE000112030E09A61DF60DE614FF488712068D7
:10BBF000FFF7FCFD4FF4A2712068FFF7F7FD236803
:10BC0000C3F83475C3F8382516BB01221A602179B0
:10BC1000242202FB015252680ABBD3F81041D3F828
:10BC20004421D3F82401144302D10028F5D0224640
:10BC3000242303FB01550023984218BF03209A4296
:10BC4000AB6118BF0F20F8BD1F61DA610126CCE798
:10BC5000D3F8002242F02002C3F80022D7E74FF4C5
:10BC60000472C3F804230020EDE71020EBE700BFC7
:10BC7000B02E00200220FEF705BF00002DE9F0479E
:10BC800081460D46FEF72CFF0328044604D8012DFB
:10BC900004D025B3022D2FD0BDE8F087194D470001
:10BCA0003A18A918AE5C4A7852B1DFF86880164895
:10BCB00042464FF48041FCF79CFA08B988F800909E
:10BCC0003B192B449A78114B1A55002EE4D0104B97
:10BCD0001B68002BE0D03046BDE8F04718470A4803
:10BCE000FCF79FFA074B04EB440213449E78074B82
:10BCF0001B5DB342D0D1E8E7024B00EB40041C448B
:10BD00006678E2E7382F0020F82E0020512F00201F
:10BD10004C2F0020D42E002002210078FFF7AEBF68
:10BD200008B5094B1B7853B10020FEF779FE0120BE
:10BD3000FEF776FE0320BDE80840FEF771BEBDE8C1
:10BD40000840FEF781BE00BFD52E0020F8B57B4C21
:10BD5000237805461BB100232370FFF7E1FF172D61
:10BD600000F28880DFE805F00C17174354657680F1
:10BD7000888D888D959A9A9A9A9AC4C9D1D9E4E403
:10BD8000FFF7CEFF6E48FCF74CFA6E4B00220446DC
:10BD90001A702046F8BD0020FEF71AFEF8B1002008
:10BDA000FEF73EFE022D0CBF4FF4E1614FF47A61C5
:10BDB000644B1D704FF400404FF47A740025E0FB93
:10BDC00001454FF4FA6200232046294607F0D0F9D6
:10BDD000002201465A48BDE8F840FCF70ABAFEF7CF
:10BDE0000BFE022D0CBFC8214FF4C871E0E7002004
:10BDF000FEF7EEFD40B10020FEF712FE4FF4487151
:10BE0000504B03221A70D5E7FEF7F6FDC821F7E77D
:10BE10000020FEF7DDFD38B10020FEF701FE4FF4F3
:10BE20007A61484B0422EDE7FEF7E6FD4FF4C87156
:10BE3000F7E70020FEF7CCFD48B10020FEF7F0FD4B
:10BE4000404B05221A7040F6CD410022C2E7FEF7B2
:10BE5000D3FDF5E70020FEF715FE3A4B06221A70D7
:10BE6000002240F26661B5E70020FEF7C5FD354BC4
:10BE700007221A7000248CE701202070FEF702FED2
:10BE8000EEE701202070FEF7FDFD00224FF4005187
:10BE9000A0E7FEF7E8FD2B4B0C22EAE72A482B4EE1
:10BEA000FCF7BFF9D5F1110504461CD0D8B9012D16
:10BEB00013D0C8235D434FF400474FF47A7000213C
:10BEC0004FF4FA620023C7FB050107F051F922463F
:10BED00001461D48FCF78DF904460220FEF78CFD53
:10BEE0000123337055E70220FEF79AFD0023F8E79F
:10BEF000FFF716FF134B1222BBE7FFF711FF0020DD
:10BF0000FEF77AFD0F4B1322B3E7FFF709FF01207D
:10BF1000FEF772FD0B4B1422ABE7FFF701FF002089
:10BF2000FEF76AFD0120FEF767FD064B1522A0E72C
:10BF3000FEF799FD034B1D709CE700BF482F0020C2
:10BF4000182F0020502F0020D82E0020D52E0020A2
:10BF5000044B1B68DB0703D5034B1878FFF7F6BECD
:10BF6000704700BF442F0020502F0020002910B53B
:10BF700014BF03240024FEF7C5FD1F288ABF0A4B07
:10BF80004FF0A04300F01F0003EB8000D0F8002723
:10BF900022F44032C0F80027D0F8003743EA0443C7
:10BFA000C0F80037002010BD00030050032801D85E
:10BFB000FEF782BD00207047044B1B6813F001039D
:10BFC00001D0FFF7C3BE1846704700BF442F0020C2
:10BFD00038B51C4B18601C4B10F002040546196064
:10BFE0001AD01A4B1A480E221A700F22DA70102239
:10BFF0009A7111225A72042140F23332FBF764FF26
:10C00000044648B9FBF7B6FF044628B90146114A71
:10C010001148FCF7E3F80446EB0711D50120FEF7C1
:10C0200077FD6CB921460D4A0D48FCF7D7F8044658
:10C0300030B90C4A0C480121BDE83840FCF7CEB8B5
:10C04000204638BD442F00204C2F0020382F0020E0
:10C050007047030019BD02009447030051BF02005E
:10C060009847030075BC020090470300032813D8CB
:10C07000012A0BD1012908D100F10E02D2B200EB46
:10C0800040000C4B1A540020704700220129F6D0C2
:10C090004BB24BB1022901D007207047054B00EB92
:10C0A000400018444270EEE7024900EB40000844AB
:10C0B0008270E8E7382F0020032802D80121FFF71B
:10C0C00055BF0620704708B5012202210020FFF766
:10C0D000CDFF08B1072810D1072202210120FFF768
:10C0E000C5FF08B1072808D100210A220846FFF73A
:10C0F000BDFF10B1072808BF002008BD0388102B22
:10C1000010B502D0112B1ED010BD1A4C2168B1B948
:10C1100001220846FFF7AAFF08B1072824D1072209
:10C1200002210120FFF7A2FF08B107281CD1042239
:10C1300002210020FFF79AFF08B1072814D12368D5
:10C1400001332360E0E70B4A1368013B1360002BC7
:10C15000DAD1FFF7B8FF0028D6D0074B1B68002BB9
:10C16000D2D0BDE810401847034B1B68002BE6D027
:10C170009847E4E75C2F0020582F002008B50020E6
:10C18000FFF79AFF08B1062806D10120FFF794FFB8
:10C1900010B1062808BF002008BD00000D4B10B5E7
:10C1A00018600C4629B10120FFF700FF40B10223BF
:10C1B0002370094B1B6853B9BDE81040FFF783BFDC
:10C1C000FFF7F4FE08B10B23F2E72070F1E700203F
:10C1D00010BD00BF582F00205C2F002076DF704775
:10C1E00078DF70477ADF70477CDF70478FDF7047FA
:10C1F00033DF7047FBF7D4BE08B50C490C48FEF797
:10C2000088F94FF6FE72C1B20A4805F0E6FE13281F
:10C2100007D943F20143984207D0BDE80840FBF735
:10C22000BFBE054BC340DB07F7D508BDC0340020B7
:10C23000D0340020AC34002001810A002DE9F04305
:10C24000DFF86090164F85B00646884615461C46B6
:10C25000082200210DEB020007F008F902ABA01C38
:10C2600008EB040118442A1B07F0D7F899F80010CE
:10C270003B8879B90093082202AB304606F081FE74
:10C2800018B90134A4B2A542E2D20C9B1C8005B0BF
:10C29000BDE8F08302AA0821304606F0D4FEEFE79D
:10C2A000BE2200203035002008B50020FFF784FEB4
:10C2B00008B1FBF775FEFFF761FF08B1FBF770FEF1
:10C2C000FFF796FF18B1BDE80840FBF769BE08BD4F
:10C2D0007FB5082301934FF6FF72034601A902A818
:10C2E00003F04AFF08B1FBF75BFE019902A803F0D7
:10C2F0001BFF08B1FBF754FE07B05DF804FB00001C
:10C3000000B5B3B008284CD8DFE800F04905171E87
:10C310002A36424E66003948394B3A49C01AC0089D
:10C32000000440F00300FBF74FFB0520FFF744FE3D
:10C33000002836D0FBF734FE33E03048304B32492A
:10C34000C01AC0080004ECE72D4B2C482F49C01A36
:10C35000C008000440F00300FBF736FB0220E5E7CD
:10C36000274B26482A49C01AC008000440F00300A1
:10C37000FBF72AFB0420D9E72048214B2549C01AA6
:10C38000C008000440F00300FBF71EFB0320CDE7CC
:10C390001A481B4B2049C01AC0080004F2E7FFF7F7
:10C3A00083FF33B05DF804FB0823CDE9023312AA02
:10C3B00003AB02A904A803F09FFE08B1FBF7F0FD50
:10C3C0000220FFF785FF039B0093029A134812ABEC
:10C3D00004A901F064FAABE712A9002003F07CFF86
:10C3E0000528DED008B1FBF7DBFD0620FFF770FF64
:10C3F0000DF15901094801F042FA99E7883D03001F
:10C40000603D0300634803006D4803008348030058
:10C4100095480300A7480300C8480300783000206F
:10C420000D4B4A881B889A4214D10A8840F677231C
:10C430009A420FD18B88094A09480A49033B9BB2AB
:10C440001380094A801AC00800041A4640F003000D
:10C45000FBF7C7BA704700BFBE220020B022002001
:10C46000883D0300CB470300603D030008B5037817
:10C470004BB9054B3B211888FFF7B0FE18B1BDE85A
:10C480000840FBF78DBD08BDBE2200200378012BBC
:10C49000F7B534D01BB1022B31D003B0F0BD1A4C2C
:10C4A0001A4D20782844FEF70FF923780133DBB2C8
:10C4B0001D44237015F8012C0A2A05D00D2A03D03B
:10C4C000134A12889A42E8D8012B15D9114D0F4E04
:10C4D000114F2378ADF806300DF106022B88314656
:10C4E000384605F0EFFF082806D01328F1D00528BC
:10C4F00002D008B1FBF754FD00232370CDE740685C
:10C50000FBF74EFDC9E700BF6C3000205030002023
:10C51000B0220020BE22002050240020F0B51B4F86
:10C5200097F83E3085B03C466BB3B8B197F83C30D5
:10C530000C255D437E190DF10E03009372787B5D2F
:10C54000D6E90110FFF77AFE132807D1BDF80E30A7
:10C5500072789A4202D37B5505B0F0BD94F83C3016
:10C560000C2202FB034200215160013394F83E206B
:10C57000DBB2013A052B84F83C3084F83E20EBD145
:10C5800084F83C10E8E70520E6E700BF1030002003
:10C5900037B50488212C054644D005D8102C0ED080
:10C5A000112C27D003B030BD562C03D0572C41D0CE
:10C5B0003B2CF7D11321A888FFF710FE15E01F4B85
:10C5C0001F482049C01AC008000440F00300FBF7D0
:10C5D000FBF90720FFF7F0FC08B1FBF7E1FC1A4B71
:10C5E000A9881A48198002F0F7FE0028DAD0FBF774
:10C5F000D7FCD7E7114B12481549C01AC0080004F0
:10C6000040F00300FBF7E0F90020FFF787FF0E4B37
:10C610004FF6FF721A800F4B002220461A70FFF768
:10C62000CBFCE2E7002301A98088ADF80430FFF7D6
:10C63000DDFDDAE70120FFF771FFB3E7603D03009E
:10C64000883D0300B4470300BE2200203835002097
:10C65000BE470300F83400202DE9F0410578064676
:10C6600045BB154C154BDFF85880E41AE408240448
:10C6700044F00104B28A95420AD33369134413F893
:10C68000013C0D2B16D10A20FEF734F81128F9E7EA
:10C690003369585DFEF72EF8074648B11128F7D0E8
:10C6A000024641462046FBF793F93846FBF778FCF3
:10C6B0000135DFE7BDE8F081883D0300603D030000
:10C6C0003848030008B50321044800F091FF18B171
:10C6D000BDE80840FBF764BC08BD00BF783000200F
:10C6E000F0B51D4D85B087B20DF10E0300930446E1
:10C6F00000233A4628460E46FFF7A0FD13281FD117
:10C70000BDF80EC0674519D3144B93F83E100629A7
:10C7100014D093F83D200C2050430132D2B21F18A0
:10C72000052AC7E9016501F1010108BF002203F8EC
:10C7300000C07C7083F83E1083F83D2005B0F0BD4A
:10C7400030F00802FAD01128F8D043F201429042AA
:10C75000F4D0FBF725FCF1E7C022002010300020C8
:10C760000E3808B5032829D8DFE800F0020E1E2491
:10C77000134B1A884FF6FF739A421FD011490120BC
:10C78000BDE80840FFF7ACBF0D4B1A884FF6FF73AA
:10C790009A4213D10C4801F093F830F008030DD001
:10C7A000BDE80840FBF7FCBB054B13211888FFF7D9
:10C7B00015FDF2E7BDE80840FFF776BD08BD00BFF4
:10C7C000BE22002074240020783000201FB50B7892
:10C7D000052B35D0062B38D0042B34D18B79022B86
:10C7E00031D1CB797BBB0DF10F020192244A254850
:10C7F000128800921946012206F068FC08B1FBF786
:10C80000CFFB214C9DF80F30227803F00203FAB9D8
:10C81000CBB11E4B1E481F49C01AC008000440F08F
:10C820000300FBF7D1F81020FFF7C6FB08B1FBF7B8
:10C83000B7FB19490620FFF753FF0123237002E0DD
:10C84000164B01221A7004B010BD144B0022F9E7F8
:10C85000002BF8D10D4B0E481149C01AC008000436
:10C8600040F00300FBF7B0F81120FFF7A5FB08B17B
:10C87000FBF796FB0B490620FFF732FF0023DDE7AD
:10C88000BE220020C0220020F8340020603D0300BA
:10C89000883D0300E9480300B8220020303500201D
:10C8A00001490300B222002030B5044687B004F0ED
:10C8B000AFF9204603F092FF2578082D05D00C2D06
:10C8C00001D1FFF7FFFE07B030BD237CDB07FAD5AF
:10C8D000237A072BF7D1134B134C1449E41AE408BD
:10C8E000240444F003042046FBF76EF801234FF6BE
:10C8F000FF7201A902A8019503F03EFC08B1FBF705
:10C900004FFB019A0A49204608230132FBF769F8D8
:10C91000019902A803F0E6FB0028D4D0FBF740FB06
:10C92000D1E700BF603D0300883D03001A490300C2
:10C930004E490300FBF734BBFBF732BBFBF730BBC0
:10C9400008B50849084802F035FC08B1FBF728FB98
:10C950001721054802F041FC18B1BDE80840FBF77B
:10C960001FBB08BD21C40200FC34002080B5B84DB7
:10C970000FCDB0B005AC0FC495E80300B54BB64A77
:10C98000019384E803004FF4807301ACCDE90323E5
:10C990000293B24A0723214605A8FDF73DFE08B1E0
:10C9A000FBF7FEFA4FF480410020FAF76DFE08B164
:10C9B000FBF7F6FAFAF7A8FDFBF7DEFB08B1FBF789
:10C9C000EFFAA74AA7480121FBF708FC08B1FBF7DB
:10C9D000E7FAA5490320FFF7FBFA08B1FBF7E0FAF5
:10C9E00005A90020FFF7DAFB08B1FBF7D9FA9DF89B
:10C9F0001460FDF7BDFC08B1FBF7D2FA05F070F842
:10CA000008B1FBF7CDFA002305A90120059305F035
:10CA10002FF908B1FBF7C4FA05A805F0DBF908B156
:10CA2000FBF7BEFA914A0A210820FBF7FFFA08B18A
:10CA3000FBF7B6FA11238E488DF8043006F06BFD33
:10CA40008B4982B22046FFF7CFFB08B1FBF7A8FA6B
:10CA50004FF47070FFF7C4FB08B1FBF7A1FA08228E
:10CA6000002105A806F002FD824B059305A803F5F9
:10CA700098130693FFF7B6FB08B1FBF791FAFFF79F
:10CA80005FFF7D4B7D48059305A902F093FC08B13B
:10CA9000FBF786FA0021042205A806F0E7FC784B94
:10CAA0007848059305A905F097FC08B1FBF778FADB
:10CAB00041F615130225ADF806304022724B029361
:10CAC000002105A88DF8045006F0D0FC05A86F4998
:10CAD00001F0E3F905A813948DF8505005F012FB0E
